:10000000F8FF0020110400005F3100005F310000A4
:100010005F3100005F3100005F3100005F310000A0
:100020005F3100005F3100005F3100005F31000090
:100030005F3100005F3100005F3100005F31000080
:100040005F3100005F3100005F3100005F31000070
:10040000FFFFFFFFFFFFFFFFFFFFFFFFFEFFFFFFFD
:1004100062B603F0F9FEFEE72DE9F04FA1B0824687
:1004200002AE002017461D46029170620DF144088D
:100430000AE017F8011B0298D0470290002800F04C
:10044000DA82706A401C7062387808B9706AD4E247
:100450002528EED10020F06030617061B061F0615C
:10046000306201E040F0010017F8011F2029F9D0A7
:1004700023290DD02B2904D02D2906D030290AD0CC
:100480000CE040F0020080B2EEE740F00400FAE732
:1004900040F00800F7E740F01000F4E72A290DD1FA
:1004A00029680A1D2A600968F162002904D54942B9
:1004B00040F00400F16280B27F1C13E00021F16281
:1004C0000BE0F16A6FF00043994205D001EB810324
:1004D00002EB43013039F1627F1C3A78A2F130011E
:1004E0000A29EED339782E2903D04FF0FF31B162BB
:1004F0001EE017F8011F2A2906D129680A1D2A6063
:100500007F1C0968B16213E00021B1620BE0B16A9F
:100510006FF00043994205D001EB810302EB4301E8
:100520003039B1627F1C3A78A2F130010A29EED34A
:1005300030860FF63840397800F036FE08B117F8EB
:10054000010B8DF83A009DF83A00682802BF39780F
:100550006829622005D06C2804BF38786C2803D144
:1005600071208DF83A007F1C11A8B0603978B1F184
:10057000250029D01C3800F0C080001F022840F25E
:10058000BC80133800F0E480093800F0B680801E8B
:1005900000F07781401E00F02081401E022840F2CA
:1005A000AC80001F00F01981401F7BD0401E00F07E
:1005B000CF80401E22D0C01E0BD0801E00F0C8800D
:1005C000C01E00F0C58064E1F068411CF160252187
:1005D00069E12868011D29600068B26A7060002A1C
:1005E00002D500F0EDFD07E0002100F005FE002837
:1005F0001ABF7168401AB06A306156E12868011D5F
:10060000296000210068CDE900014FF03C0E11A8DF
:100610007060DDE9000111B908B9B26ACAB1020619
:10062000120FA0EB02123032AEF10103D2B29E469D
:100630003A2AA8BF2732000903F8082040EA0170CF
:10064000090908BF002804D0726811AB73449A42AC
:10065000E5D311A971447160CEF13C00B16A3061FB
:10066000884207DA081AB0614FF6EF71308E084001
:1006700030861AE1002940F1188196F8301001F017
:100680001401102940F01181F16AF268891AB269E7
:10069000891AA1EB000EBEF1010FC0F20681C6F867
:1006A00018E002E19DF83A00622818D0682806D0C8
:1006B0006A280BD06C2819D0712807D016E028685A
:1006C000011D29600068716A0180EEE02A68101D32
:1006D00028601268706AC117C2E90001E5E0286865
:1006E000011D29600068716A0170DEE02868011D43
:1006F00029600068716A0160D7E02868C01D20F099
:100700000700286000F108022A60D0E90023CDE943
:100710000023002B04D5F068421CF2602D220DE06E
:10072000308E820704D5F068421CF2602B2205E06F
:10073000C00705D5F068421CF260202200F80820AE
:10074000F06811AA8018706000A800F0DDF9ACE034
:100750009DF83A006C2808BF2A6811D0712808BF9C
:100760002A6802D02A686A280AD1D21D22F007021C
:100770002A60144604F108022A60D4E9002303E049
:10078000131D2B6000231268CDE90023682808BFE1
:1007900092B207D0622808BFD2B203D0742818BF23
:1007A0007A2802D10023CDE9002396F83000000713
:1007B0005FD5DDE90023002B08BF002A59D041F0A6
:1007C0002000782855D1F068302200F80820401C1D
:1007D000421CF26000F808104BE09DF83A006228D5
:1007E0000CD0682810D06A281AD06C2823D0712821
:1007F00016D074281FD07A280CD01CE02868021D5F
:100800002A6090F900201AE02868021D2A60B0F9D9
:10081000002014E02868021D2A60002302680FE00F
:100820002868C01D20F00700286000F108022A6037
:10083000D0E9002304E02868021D2A600268D3176B
:10084000CDE90023002B04DAF068421CF2602D226F
:100850000DE0308E820704D5F068421CF2602B2236
:1008600005E0C00705D5F068421CF260202200F8C0
:100870000820F06811AA8018706000A800F0C0F885
:1008800013E0F068411CF16029680A1D2A600968BC
:1008900009E0F068421CF260252200F8082021B12E
:1008A000F068421CF26000F80810F06AF168401A23
:1008B000B169401A3169401AF169401A7169401AE8
:1008C000316AA0EB010996F830007F1C400710D474
:1008D00020208DF84000002409E0012310AA00A97F
:1008E000504600F02CFC002840F08580641C4C45EC
:1008F000F3DBF4680DF1440B0AE01BF8011B0298CE
:10090000D0470290002876D0706A401C7062641E46
:10091000002CF2D130208DF840004FF0000BB4696C
:1009200009E0012310AA00A9504600F008FC0028A5
:1009300061D10BF1010BA345F3DB3469D6F804B0A8
:100940000AE01BF8011B0298D0470290002852D001
:10095000706A401C7062641E002CF2D130208DF849
:1009600040004FF0000BF46909E0012310AA00A930
:10097000504600F0E4FB00283DD10BF1010BA345EC
:10098000F3DB30697168746900EB010B09E01BF857
:10099000011B0298D047029068B3706A401C7062D5
:1009A000641E002CF3D130208DF840004FF0000B76
:1009B000346A08E0012310AA00A9504600F0BFFBEA
:1009C000C8B90BF1010BA345F4DB96F830004007E2
:1009D0007FF53AAD20208DF84000002400E0641C33
:1009E0004C45BFF631AD012310AA00A9504600F0D6
:1009F000A6FB0028F3D04FF0FF3021B0BDE8F08F08
:100A00002DE9FA4E05460A462F696F2A08BF0824C9
:100A100005D041F02000782814BF0A241024D5E91D
:100A200000013C2681468B46642A18BF692A05D1FD
:100A3000002903DAD9F100096BEB4B0BBBF1000F76
:100A400008BFB9F1000F0CD1286B50B9082C36D172
:100A500095F83800000732D530203B2687F83B0058
:100A60002DE0E31748465946224600F0F1FBA4FB6F
:100A70000023A9EB02023032A6F1010AD2B2564697
:100A80003A2A03DB9DF80030513B9A180AF80720F8
:100A900081465FEA010B08BFB9F1000F03D0E86897
:100AA000F1198842DDD3082C09D195F838000007E8
:100AB00005D5F05D302802D0761E3020F055C6F105
:100AC0003C00A861F119E960296B884208DA081A2C
:100AD00028624FF6EF71288F08402887BDE8F38E13
:100AE00000290ED595F8381001F01401102908D10D
:100AF000696B6A69891A2A6A891A081A0128A8BFC3
:100B00002862BDE8F38E00002DE9F04F07468FB054
:100B10008B46D7E90001CDE9020104AE4BF020007D
:100B200061280BD0386B002848BF062005D404BFCD
:100B30004BF02000672801D1012038637968C1F3A8
:100B40000A5040F2FF7290421AD1080304BF38687D
:100B5000002808D10320B861ABF161001A2835D311
:100B60000FF21C6107E00320B861ABF161001A28A5
:100B700029D30FF20461F868032200F0E1FBB6E12B
:100B8000012816DA384600F016FC012811DB002493
:100B900000204BF0200161291FD1F968302201F8B3
:100BA000012B4A1CFA60BBF1610F0CBF782258225E
:100BB0000FE07A6840F2FE3161F31E52441A7A6007
:100BC0004FF0FF30E5E70FF2AC51D4E70FF2AC5134
:100BD000D1E70A707969891C796110B90025002470
:100BE0007DE14BF02000612840F09580386B0028B3
:100BF0004CBF2125451CDDE902012DB26E1CD7E951
:100C000000890022002300F0F7FB3ABF89F0004082
:100C1000CDE90280CDE90289241F8DF810200DF165
:100C2000110A01E000F2070A012E32DBDDE90201C0
:100C30000022002300F0F8FB2BD21C2102A800F0B8
:100C40000BFCDDE9020100F091FCF61F8046012E4D
:100C500009DB00F0B7FC02460B46DDE9020100F0BB
:100C6000C9FCCDE902010AF20700072105E008F0FE
:100C70000F0200F8012D4FEA2818B8F1010F01DB2F
:100C8000491EF4D5491E5CBF002200F8012DF9D59C
:100C9000C8E70DF11100AAEB00010DF11106A94200
:100CA000B8BF0D462DB228002ED4884206DA04A91A
:100CB000411849780829A8BF0F2100DA002104AAA9
:100CC000821800E06D1E12F80139401E8B42F9D0E7
:100CD0000F2904D104A941184A78521C4A700028EF
:100CE00002D504AE6D1C241D2DB2681E0CD48119D2
:100CF000ABF13A030A783032D2B23A2AA8BF9A1836
:100D000001F80129401EF5D5386B002840F1E78035
:100D1000681E3863E3E0DDE902010022002300F0F1
:100D20006BFB3CBF81F00041CDE9020124B247F2E8
:100D3000975060434849DFF824A190FBF1F424B2B6
:100D4000C4F107050026012D19DBDDE90289E8075A
:100D500007D5324653464046494600F00BFD8046D3
:100D600089466D10304651463246534600F002FD2A
:100D700006468A46002DEAD1CDE9028921E06D427E
:100D80009046DFF8DC9012E0E80707D5324653467C
:100D90004046494600F0EEFC804689466D103046DC
:100DA00051463246534600F0E5FC06468A46002D81
:100DB000EAD1DDE9020142464B4600F0ADFDCDE946
:100DC00002014BF0200066280CBF04F10A00062047
:100DD000396B4518142DA8BF132530208DF810004D
:100DE0000DF11106DFF87C90012D3DDBDDE90201FC
:100DF00000F0D2FB06F1080104220A23B0FBF3F352
:100E000003EB8306A0EB4600303001F8010D0A2009
:100E1000B3FBF0F000EB8006A3EB4603303301F8A0
:100E2000013D521EE9D1083D01F10806012DDBDB31
:100E3000DDE9020100F0B0FB00F0CEFB02460B46FC
:100E4000DDE9020100F0D6FB00224B4600F092FCE7
:100E5000CDE90201CAE700BFA086010000002440DE
:100E60000000F03F84D797410DF11100301A0DF1C9
:100E7000110602E0401E641E761C31783029F9D03C
:100E80004BF02001662902D124B2611C03E06529E0
:100E90000CBF012100213A6B8D182DB2A842B8BFBA
:100EA00005462DB229001AD4814204DA885D35281E
:100EB000A8BF392000DA30208A19521E00E06D1ECA
:100EC00012F80139491E8342F9D0392802D1885DD0
:100ED000401C8855002902D5761E6D1C641C24B266
:100EE00000942BB232465946384600F003F80FB052
:100EF000BDE8F08F2DE9F04786B006468A46904659
:100F00001D4600F04AFE406A376B90F80090012DB4
:100F100002DA01250FF26C284AF02000BDF93840B2
:100F2000662808BF641C12D0672875D114F1040F1D
:100F300078DBBC4276DA96F83800641C000702D4ED
:100F4000BD42B8BF2F4624B23F1B48BF0027F06800
:100F5000B16924B2012C21DA30234A1C0B54012F31
:100F600003DA96F83810090702D502F80090521CEF
:100F7000B261E742B8BF7C4224B26142E7197162B4
:100F8000AF42B8BF3D462DB2F5612A46B36941462E
:100F9000181800F0D5F9781BB062B9E00818A5421E
:100FA00016DA2A46414600F0CBF9B1696918B161F9
:100FB000601B7062012F03DA96F83800000705D530
:100FC000F06801F80090F069401CF061B7629FE0A2
:100FD0002246414600F0B4F9B06920182D1B012FBC
:100FE00003DA96F83810090703D5F16800F8019084
:100FF000401C2DB2B061AF42B8BF3D46F3682DB280
:101000002A4604EB0801C01800F09AF9B0692818C4
:10101000B061781B70627BE0BAF1610F14D14FF0C0
:10102000700A16E0BD4204DA96F83810090758BF76
:101030002F467F1E48BF0027BAF1670F14BF4FF03D
:10104000450A4FF0650A04E0BAF1410F08BF4FF0BE
:10105000500AB169F06818F8013B0B544A1C012F83
:1010600005DA96F83810090758BFB26115D502F8AD
:101070000090531CB361012F0FDB6D1E2DB2AF42E8
:10108000B8BF3D462DB22A464146181800F058F91F
:10109000B0692818B061781B7062B069F16800EB24
:1010A0000108200008F801AB03D42B2008F8010B3D
:1010B00003E02D2108F8011B6442002502AF08E07F
:1010C0000A2200A800F082FD019807F8010B6D1CB0
:1010D000009C21B20129F3DA022D06DA4AF0200041
:1010E000652804BF302008F8010B4DB9302008F8FE
:1010F000010B07E06D1E02A8285C303008F8010BD8
:10110000012DF7DAB069F1684018A8EB0000F06132
:1011100096F8380000F0140010280DD17069B169FC
:101120000818716A0818F1690818B16A0818716B13
:101130008842BCBF081A306206B0BDE8F087F8B537
:1011400004460D4616461F46002004E0E86A401C8F
:10115000E8627F1E002047B116F8011BA868A0476F
:10116000A8600028F2D14FF0FF30F2BD686A6C74BD
:101170007A4C00006E616E004E414E00696E660052
:10118000494E4600300050F8041B61B150F8042B62
:10119000D30744BFA9F101039A18002342F8043B86
:1011A000091FFAD1EFE770470278C9B28A421AB133
:1011B0001CBF10F8012FF9E718BF0020704700008E
:1011C00000F10103810704D010F8011B89B18107E8
:1011D000FAD10268B2F10131914311F0803F04BFAE
:1011E00050F8042FF6E710F8011B11B110F8011B9D
:1011F000FBE7C01A70470000C9B2830706D0521E31
:1012000022D310F8013B9942F7D11FE0083A13D3DB
:1012100002F1040241EA012141EA014150F8043B94
:10122000121F21BF4B40A3F1013C2CEA030C1CF020
:10123000803FF3D0C9B2001F083210F8013B521EA4
:1012400028BF91EA030FF8D818BF0120401E70474D
:101250001B4213D1094236D12AB18446B0FBF2F0C9
:1012600002FB10C2704700F0B9BCFCD3002200237F
:1012700070470B000200002100207047904271EB84
:10128000030CF6D370B5B1FA81F4B3FA83F52C1BD5
:10129000A340C4F1200532FA05F63343A2405FF0C3
:1012A0000046E64002E05B085FEA3202841A71EB16
:1012B000030524BF204629467641F4D302000B00E3
:1012C0003000002170BD012ACFD970B5140C20D098
:1012D000B1FA81F4B2FA82F5C4F120046419B4F1D0
:1012E0002006D6D3B2405FF00044F440002502E06F
:1012F00052085FEA3303C61A71EB020E24BF304670
:10130000714664416D41F3D302000B0020002900B7
:1013100070BD0C46B1FBF2F102FB11452D0445EA0C
:101320001045B5FBF2F402FB145580B240EA0545C6
:10133000B5FBF2F002FB105240EA044070BD000021
:1013400062B38B0708D0521E11F8013B00F8013B35
:1013500000F024808B07F6D1830740F0208000BF87
:10136000103A07D330B4B1E83810103AA0E838107A
:10137000F9D230BC530724BFB1E80810A0E8081028
:1013800044BF51F8043B40F8043BD20724BF31F876
:10139000022B20F8022B44BF0B7803707047083AE9
:1013A00007D3B1E80810083A40F8043B40F804CBF2
:1013B000F7D25307E4E730B4436803F00042012159
:1013C0001B031B0B436004BF0368002B08D10DE017
:1013D0000368DD0F45EA440444605B000360491E76
:1013E0004468E302F4D523031B0B436043681A43AC
:1013F0004260084630BC70474FF4001C1CEB410FA4
:1014000094BF1CEB430F09E041EA030C50EA4C0C7B
:1014100052EA0C0C03D2994208BF9042704714BFA5
:101420008B428242704700004FF4001C1CEB410FBE
:1014300094BF1CEB430F09E041EA030C50EA4C0C4B
:1014400052EA0C0C03D28B4208BF8242704714BF91
:10145000994290427047000070B504460D4660689E
:10146000C0F30A5040F2FF71884207D16068000360
:1014700004BF2068002817D0022070BD20B9204684
:10148000FFF799FF012867DA012D0FDB40F2FF71AA
:10149000091A8D420AD3606800284CBF9FED2F0BBC
:1014A0009FED300B84ED000B012070BD4142A9423D
:1014B000616806DA6FF31E51401941EA005060601E
:1014C00041E0401E63680122451962F31F5305F194
:1014D000350001F000416360352803D361600020CE
:1014E000206070BD002215F11F0F04DA226823600E
:1014F000002020356060684213D0521E256892415A
:10150000C0F12003D2439D4045EAD2722568666847
:10151000C54006FA03F32B432360636823FA00F007
:101520006060606808436060B2F1004F03D80DD17D
:101530002078C0070AD52068401C2060206828B9A0
:101540006068401C60604FF0FF3070BD606888428A
:1015500004BF20680028F6D1002070BD0000000004
:101560000000F0FF000000000000F07FF446400D96
:1015700040EAC120490006D200F014F8004248BFFA
:101580006FF00040604700F00DF84FF000418842D6
:101590008CBF084640426047400D40EAC1204900E8
:1015A00080F00D8040F00040490DA1F58061491C9C
:1015B00005D4D1F11F0154BFC840C01770474FF088
:1015C00000007047010040F10980F446404200F0FD
:1015D00005F851F000416047010000BF09D0B0FAA2
:1015E00080F18840C91CC1F58461090501EBD02157
:1015F0004005704770B44FF0004591EA030F44BFB7
:101600006B4000F0EDBA00BF841A71EB030604D200
:101610006E40001BB141121973414FF4001C1CEBCA
:10162000410F34BF7CEB430684E00C0DA4EB135652
:10163000362E7DDC012E43DC45EAC32343EA5253B8
:1016400012BFD20292025B08240545EAC12141EA99
:101650005051D2EBC020994125D407D1B0FA80F681
:1016600010FA06F164D00020203608E0B1FA81F6C5
:10167000B140C6F1200220FA02F21143B0404FEA15
:10168000F474B4EB465434F001064FEA74040AD8FB
:10169000D6F50016760D04F00044F04061FA06F22B
:1016A0005040F1404840C00A40EA415021F000411A
:1016B00028BF5FEA500550F1000044EBD12137E02C
:1016C00045EAC323DB0A45EAC121C90AB6F1200570
:1016D0000EDD42EA0242120CC5F1200603FA06F6BC
:1016E000EB4042EA06056D42984161F100010DE0D0
:1016F00062FA06F5F240554063FA06FC82EA0C02F3
:10170000F3405A406D42904161EB030111F4801F98
:1017100005D1641E620502D06D004041494121F4AB
:101720008011430875F1004350F1000041EB045172
:1017300070BC70471CEB410F15D223F0004352EAF6
:1017400043060BD04FEA4C0CBCEB410F04D80C0DF8
:10175000661E342EB7DDEBE7801A994150EA410648
:1017600008BF0021E4E708BF1CEB430F28BF6FF060
:101770000001DDE7B0B581EA030C0CF0004C40F24B
:10178000FF7515EA11541DBF15EA1357AC42AF425D
:1017900039E0E41923EA455343F48013C90241F0C8
:1017A000004141EA505EC7021100A7FB0202002877
:1017B0004FF00000EEFB01204FF00001E3FB07219A
:1017C00018BF42F00102401800214941E3FB0E011D
:1017D000A4F580640F0302D252004041494154F104
:1017E00001046CDD470872F1004250F1000051EB3A
:1017F0000451A1F580115CBF41EA0C01B0BD4CEA77
:1018000005510020B0BD05EA1357AC4214BFAF42EA
:1018100041E050EA410E1CBF52EA430E02E061462D
:101820000020B0BD24423C441BD15FEA070EF6D035
:10183000090302BF01460020AEF1140EB1FA81F790
:10184000AEEB070401FA07FE0C37C7F1200100FADE
:1018500007F7C8404EEA000E23EA455343F48013CD
:10186000A2E733F00043B3FA83F704BFB2FA82FE73
:1018700077440B3FE41BB7F1200E2FBF02FA0EF3A3
:10188000BB40C7F1200E22FA0EFE38BF43EA0E031A
:10189000BA40641C82E750EA410E14BF52EA430E7C
:1018A0006FF000014FF4001717EB430F8ABF194682
:1018B00017EB410FB5E74CEA05510020B0BDD4F15C
:1018C0000104B4F120070FDAC4F12007520828BF41
:1018D00042F0010210FA07F501FA07F7E1BF2A43C7
:1018E000E0403843E1400FE0352C98DCC7F120049C
:1018F00052EA400220FA07F218BF42F0010231FA20
:1019000007F0A1400A43002172F1004250F10000AB
:1019100051EB0C01B0BD0000F0B540F2FF7581EA5B
:10192000030C0CF0004C15EA11541DBF15EA1357B7
:10193000AC42AF42E5E0BC41C1F31301C3F3130372
:10194000801A994143F4801304D2641E4000494137
:1019500080185941C90241EA5051B1FBF3F603FB2B
:101960001611A2FB0675D7EBC020A94102D2761E44
:1019700080185941C90241EA5051B1FBF3FE03FB03
:101980001E11A2FB0E75D7EBC020A94103D2AEF108
:10199000010E80185941890241EA9051760546EAC4
:1019A0008E2EB1FBF3F603FB1611A2FB0675D7EBE7
:1019B0008020A94102D2761E80185941C90241EA0D
:1019C00050514EEA060EB1FBF3F603FB1611A2FBD3
:1019D0000675D7EBC020A94102D2761E8018594166
:1019E000C90241EA5051B1FBF3F703FB1711A2FB07
:1019F0000735D3EBC020A94167F100070CBF0042B7
:101A000047F0010766F3D5274FEA1E31B80814F5F1
:101A1000806412DDBD0775F1004250EB0E5051EBB2
:101A2000045111F5801F5CBF41EA0C01F0BD4CF080
:101A30007F6141F0E0410020F0BDBD076D0840EA44
:101A40000E5041F48011D4F10104B4F120060ADAF9
:101A5000C4F120060200E04001FA06F3E140184319
:101A6000B24015430EE0342C13DCC6F1200445EAE5
:101A700040056D0820FA06F2154321FA06F0A14050
:101A80000D43002175F1004250F1000051EB0C01B3
:101A9000F0BD00205FEA0C01F0BDCFB992185B41A8
:101AA000B3FA83F704BFB2FA82F6BF190B3FB7F15E
:101AB00020062FBF02FA06F3BB40C7F1200622FA28
:101AC00006F638BF3343BA401CB1E419641E33E74D
:101AD0007F4231F00041B1FA81F404BFB0FA80F6E0
:101AE000A4190B3CB4F120062FBF00FA06F1A14067
:101AF000C4F1200620FA06F638BF3143A0403C1B53
:101B00001AE7AC421ABF05EA1357AF4212E050EA97
:101B100041061CBF52EA4306BFE750EA4107304680
:101B200061461CBF41EA0551F0BD52EA430C08BFB3
:101B3000C143F0BD00204FF4001616EB410F98BFD3
:101B400016EB430F08BF16EB410F24BFC14305E05E
:101B500016EB430F0CBF61464CEA0551F0BD000087
:101B600080B5134800F0A6F80FF24801016041600B
:101B70008160C1600161416181610FF23C0242629A
:101B80008162C162016341630FF2300282630FF22E
:101B90003402C2630164416401BD10B5044800F021
:101BA00089F80446206808B9FFF7DAFF204610BD1F
:101BB0001C3BFF1F000000002E00000066616C73DC
:101BC00065000000747275650000000091FBF2F37F
:101BD00003FB1211C0E9003170470000704700009C
:101BE000841A71EB030603D2001BB1411219734131
:101BF0004FF4001C1CEB410F34BF7CEB430443E06B
:101C00000C0DA4EB1356352E50DC45EAC323DB0A3A
:101C100045EAC121C912B6F120050DDD63FA05F6CA
:101C2000EB4086EA0305124218BF45F00105C018D3
:101C300051F100010CD213E062FA06F5F240554072
:101C4000F3415A40B340F3405A408018594107D3FA
:101C500049085FEA30005FEA350528BF45F0010515
:101C600001F58011420875F1004250F1000041EB8E
:101C7000045170BC4FF4001C1CEB410F38BF70477F
:101C80000020090D090570471CEB410F10D252EAE4
:101C900043060BD0BCEB410F05D80C0DAB43661EC1
:101CA000342EB5DD02E0AB438018594170BC70475B
:101CB00070BC7047704700006A6E6B6C676D4E4F6A
:101CC000343536370000000000000000000000003E
:101CD0000000000000000000000000000000000004
:101CE00000004E6F6E4D61736B61626C65000000A9
:101CF00000486172644661756C7400000000000069
:101D00004D656D4D616E6167656D656E7400004275
:101D100075734661756C7400000000000000557317
:101D20006167654661756C7400000000000000008A
:101D300000000000000000000000000000000000A3
:101D40000000000000000000000000000000000093
:101D50000000000000000000000000000000000083
:101D6000000000000000000000535643616C6C004E
:101D7000000000000000000044656275674D6F6E52
:101D800069746F7200000000000000000000000095
:101D900000000000000050656E6453560000000013
:101DA00000000000005379735469636B0000000069
:101DB00000000000444D4130000000000000000021
:101DC000000000444D413100000000000000000010
:101DD0000000444D413200000000000000000000FF
:101DE00000444D41330000000000000000000000EE
:101DF000444D413400000000000000000000004499
:101E00004D41350000000000000000000000444D7E
:101E100041360000000000000000000000444D4179
:101E2000370000000000000000000000444D413871
:101E30000000000000000000000000444D41390097
:101E400000000000000000000000444D413130005F
:101E5000000000000000000000444D41313100004E
:101E60000000000000000000444D4131320000003D
:101E700000000000000000444D413133000000002C
:101E8000000000000000444D41313400000000001B
:101E90000000000000444D4131350000000000000A
:101EA00000000000444D415F4572726F72000000F7
:101EB0000000004D434D0000000000000000000045
:101EC00000004654464C00000000000000000000E6
:101ED00000526561645F436F6C6C6973696F6E007B
:101EE0004C56445F4C565700000000000000004C68
:101EF0004C57000000000000000000000000576187
:101F0000746368646F6700000000000000524E4771
:101F100000000000000000000000000049324330D3
:101F200000000000000000000000004932433100C2
:101F30000000000000000000000053504930000085
:101F40000000000000000000005350493100000074
:101F50000000000000000000535049320000000063
:101F60000000000000000043414E305F4F525F4DC3
:101F7000425F6275660043414E305F4275735F4F4A
:101F8000666600000043414E305F4572726F72001A
:101F90000000000043414E305F54785F5761726E1D
:101FA000696E6743414E305F52785F5761726E6968
:101FB0006E6743414E305F57616B655F557000003F
:101FC000005265736572766564353100000000006B
:101FD0005265736572766564353200000000004317
:101FE000414E315F4F525F4D425F62756600434123
:101FF0004E315F4275735F4F666600000043414E8D
:10200000315F4572726F72000000000043414E3133
:102010005F54785F5761726E696E6743414E315FFE
:1020200052785F5761726E696E6743414E315F57F8
:10203000616B655F5570000000526573657276656F
:10204000643539000000000052657365727665647E
:102050003630000000000055415254305F52585F46
:1020600054580000000055415254305F4552520010
:10207000000000000055415254315F52585F5458DF
:102080000000000055415254315F4552520000009B
:1020900000000055415254325F52585F54580000BE
:1020A000000055415254325F45525200000000007A
:1020B0000055415254335F52585F5458000000009D
:1020C00055415254335F4552520000000000005504
:1020D000415254345F52585F54580000000055413B
:1020E0005254345F455252000000000000554152E6
:1020F00054355F52585F5458000000005541525407
:10210000355F45525200000000000041444330005A
:1021100000000000000000000000414443310000C6
:10212000000000000000000000434D50300000009F
:102130000000000000000000434D5031000000008E
:1021400000000000000000434D503200000000007D
:1021500000000000000046544D3000000000000068
:10216000000000000046544D310000000000000057
:102170000000000046544D32000000000000000046
:10218000000000434D54000000000000000000006B
:102190000000525443000000000000000000000056
:1021A0000052657365727665643833000000000084
:1021B00050495430000000000000000000000050B2
:1021C00049543100000000000000000000005049A8
:1021D000543200000000000000000000005049548C
:1021E00033000000000000000000000050444230B6
:1021F00000000000000000000000005553423000C5
:102200000000000000000000000055534244434419
:10221000000000000000000000454E45545F3135CD
:1022200038385F54696D6572454E45545F5472612C
:102230006E736D69740000454E45545F5265636569
:10224000697665000000454E45545F4572726F72B5
:102250000000000000493253300000000000000080
:10226000000000005344484300000000000000004C
:102270000000004441433000000000000000000066
:102280000000444143310000000000000000000055
:10229000005453493000000000000000000000001E
:1022A0004D43470000000000000000000000004C0B
:1022B0005054696D65720000000000000000526516
:1022C00073657276656431303200000000504F5201
:1022D000544100000000000000000000504F525424
:1022E0004200000000000000000000504F52544324
:1022F00000000000000000000000504F5254440055
:10230000000000000000000000504F525445000043
:10231000000000000000000052657365727665647D
:1023200031303800000000526573657276656431A3
:102330003039000000005265736572766564313192
:10234000300000000052657365727665643131318A
:1023500000000000526573657276656431313200A9
:102360000000005265736572766564313133000098
:102370000000526573657276656431313400000087
:102380000052657365727665643131350000000076
:102390005265736572766564313136000000005213
:1023A00065736572766564313137000000005265EF
:1023B00073657276656431313800000000526573D0
:1023C0006572766564313139000000000400000058
:1023D0001E1F20222426292C2F33373B40454A50EC
:1023E000565C62686E747A80868C92989EA4AAB0BD
:1023F000B6BCC2C8CED4DAE00080034000900340EF
:1024000000800B4000F00F4040F00F4080F00F4084
:10241000C0F00F4000F10F4066000A1D32000701B6
:10242000640007106E000406780004088200040AA5
:102430008C00040C9600040EA0000410AA000412E4
:10244000B4000414BE000416C8000418D200041A14
:10245000DC00041CE100041DE600041EEB00041F68
:10246000F4000317FA000318130101062C010214EB
:10247000000109080090044000A0044000B004409E
:1024800000C0044000D0044000A0064000B0064058
:1024900000C0064000D0064000A00E4000B00E4034
:1024A00002040101C43AFF1F143BFF1FC43AFF1F7F
:1024B000C43AFF1FC43AFF1F350CFF1F1C0CFF1F3F
:1024C000000000000000000000000000000000000C
:1024D00000000000000000000000000000000000FC
:1024E0000821DFF89823126852F40022DFF88C33B9
:1024F0001A6000BFDFF88423126832F48032DFF8FC
:102500007C331A6000BF0A00511ED2B2002A25D0C7
:10251000020608D5DFF86423126852F40032DFF8AF
:102520005C331A6007E0DFF85423126832F400329B
:10253000DFF848331A60DFF84423126852F480321F
:10254000DFF838331A6000BFDFF83023126832F446
:102550008032DFF828331A604000D4E7704700006B
:102560000821DFF81823126832F40022DFF80C3358
:102570001A60DFF80823126832F48032DFF8FC3288
:102580001A600A00511ED2B2002A25D0020608D5D0
:10259000DFF8E822126852F40032DFF8E0321A6005
:1025A00007E0DFF8D822126832F40032DFF8CC32CC
:1025B0001A60DFF8C822126852F48032DFF8BC32A9
:1025C0001A6000BFDFF8B422126832F48032DFF8FC
:1025D000AC321A604000D4E7704738B504000D00F3
:1025E000B5F15000C0B2FFF7BBFFE4B2200950F0D4
:1025F0001000C0B2FFF7B4FF14F00F00FFF7B0FFF8
:1026000031BD70B5040000200500EDB2082D17DAC9
:10261000B5F15000C0B2FFF7A3FF0120FFF7A0FF04
:102620001020FFF79DFF00200600F6B2802E05DA8D
:102630002000C0B2FFF754FF761CF6E76D1CE4E7FC
:1026400070BD80B2002809D043F2264211000A0072
:10265000511E92B2002AFAD1401EF2E7704780B5AF
:102660004FF48070DFF8181208604FF48070DFF8C4
:10267000141208604FF48070DFF80C1208604FF4F9
:102680008070DFF8081208605FF47020DFF8001235
:102690000860DFF8E801006850F48030DFF8DC11F2
:1026A0000860DFF8D801006830F48020DFF8CC1132
:1026B00008603220FFF7C5FFDFF8C001006850F462
:1026C0008020DFF8B8110860AE20FFF749FF002036
:1026D000FFF746FF1020FFF743FF4020FFF740FFC2
:1026E0008120FFF73DFFCF20FFF73AFFA120FFF742
:1026F00037FFC820FFF734FFA620FFF731FFA820DF
:10270000FFF72EFF3F20FFF72BFFD320FFF728FF17
:102710000020FFF725FFD520FFF722FF8020FFF7DD
:102720001FFFD920FFF71CFFF120FFF719FFDA2068
:10273000FFF716FF1220FFF713FFDB20FFF710FF54
:102740004020FFF70DFF2020FFF70AFF0220FFF7D0
:1027500007FF8D20FFF704FF1420FFF701FFA420DF
:10276000FFF7FEFEA620FFF7FBFEAF20FFF7F8FE07
:102770000020FFF746FF00210020FFF72EFF01BDDC
:1027800038B500200400E4B2082C1CDAB4F1500083
:10279000C0B2FFF7E5FE0020FFF7E2FE1020FFF7D2
:1027A000DFFE00200500EDB2802D0ADAE4B2EDB2C2
:1027B000DFF8E00010EBC500205CFFF791FE6D1C18
:1027C000F1E7641CDFE731BDF0B40025C0B280281A
:1027D00002DAC9B2402900DB30E0C9B2082691FB19
:1027E000F6F6D6F107063300C9B2082691FBF6F7D4
:1027F00007FB16173C000126D4F10707BE40350041
:10280000D2B2002A0DD0DBB2C0B2224E16EBC00607
:10281000DBB2C0B21F4F17EBC007DF5D2F439F55E0
:102820000CE0DBB2C0B21B4E16EBC006DBB2C0B28E
:10283000184F17EBC007DF5DAF439F55F0BC7047E3
:10284000F8B504000D0016002900C9B22000C0B27E
:10285000FFF7C3FE203E00200700FFB2062F0ADA72
:10286000FFB2B6B206200C4900FB0610385CFFF739
:1028700037FE7F1CF1E7F1BD0000000080F00F4043
:1028800040B0044044B0044048B004404CB0044060
:1028900094F00F40180EFF1F003E000070B50400BA
:1028A0000D001600B6B24FF47A7096FBF0F100FB03
:1028B0001160642190FBF1F010F1300292B2290016
:1028C000C9B2A01DC0B2FFF7BBFFB6B2642096FB31
:1028D000F0F100FB11600A2190FBF1F010F13002E1
:1028E00092B22900C9B214F10C00C0B2FFF7A8FFE0
:1028F000B6B20A2096FBF0F100FB116010F1300235
:1029000092B22900C9B214F11200C0B2FFF798FFC9
:1029100070BD0000DFF800F0C90DFF1F40B2DFF806
:10292000981331F8201040B20128C0F26A8140B2F9
:10293000162880F266810022DFF880331A7089B28F
:102940003D2904DA0022DFF874335A7077E089B247
:10295000792904DA0122DFF864335A706FE089B212
:10296000B52904DA0222DFF854335A7067E089B2DD
:10297000F12904DA0322DFF844335A705FE089B2A8
:10298000B1F5967F04DC0422DFF830335A7056E04C
:1029900089B2B1F5B47F04DC0522DFF820335A7028
:1029A0004DE089B2B1F5D27F04DC0622DFF80C33AA
:1029B0005A7044E089B2B1F5F07F04DC0722DFF8F9
:1029C000FC325A703BE089B2B1F5077F04DC082283
:1029D000DFF8E8325A7032E089B2B1F5167F03DCD5
:1029E0000922B64B5A702AE089B2B1F5257F03DC83
:1029F0000A22B24B5A7022E089B2B1F5347F03DC6F
:102A00000B22AE4B5A701AE089B2B1F5437F03DC5A
:102A10000C22AA4B5A7012E089B2B1F5527F03DC46
:102A20000D22A64B5A700AE089B2B1F5617F03DC32
:102A30000E22A24B5A7002E00F22A04B5A7089B2AC
:102A40001A2903DA00229D4B9A7069E089B2332972
:102A500003DA0122994B9A7062E089B24C2903DAB9
:102A60000222964B9A705BE089B2652903DA032251
:102A7000924B9A7054E089B27E2903DA04228F4B7C
:102A80009A704DE089B2972903DA05228B4B9A7030
:102A900046E089B2B02903DA0622884B9A703FE0FB
:102AA00089B2C92903DA0722844B9A7038E089B2C7
:102AB000E22903DA0822814B9A7031E089B2FB29BE
:102AC00003DA09227D4B9A702AE089B2B1F58A7F38
:102AD00003DA0A22794B9A7022E089B2B1F5967F27
:102AE00003DC0B22754B9A701AE089B2B1F5A37F13
:102AF00003DA0C22714B9A7012E089B2B1F5AF7F04
:102B000003DC0D226D4B9A700AE089B2B1F5BC7FEF
:102B100003DA0E22694B9A7002E00F22674B9A701B
:102B200089B21A2903DA0022644BDA7069E089B2AB
:102B3000332903DA0122614BDA7062E089B24C2951
:102B400003DA02225D4BDA705BE089B2652903DAB1
:102B500003225A4BDA7054E089B27E2903DA042248
:102B6000564BDA704DE089B2972903DA0522534BB0
:102B7000DA7046E089B2B02903DA06224F4BDA70E8
:102B80003FE089B2C92903DA07224C4BDA7038E0FA
:102B900089B2E22903DA0822484BDA7031E089B2BF
:102BA000FB2903DA0922454BDA702AE089B2B1F534
:102BB0008A7F03DA0A22414BDA7022E089B2B1F54A
:102BC000967F03DC0B223D4BDA701AE089B2B1F537
:102BD000A37F03DA0C22394BDA7012E089B2B1F527
:102BE000AF7F03DC0D22354BDA700AE089B2B1F514
:102BF000BC7F03DA0E22314BDA7002E00F222F4B3A
:102C0000DA70704710B50400200040B2FFF786FE6E
:102C10002B48007810F0FD002949087028480078FA
:102C200050F0100026490870B82026490870264840
:102C30000078C006FBD424480078C0F38100C0B2FD
:102C40000228F8D11D48C3781C4882781B48417877
:102C50001A480078FFF75EFE64B2174810EB840054
:102C6000807810F007001949087064B2124810EB20
:102C70008400C07810F01F0050F040001449087024
:102C8000114800788006FBD50F4800784006FBD538
:102C90000C48007810F03F000A4908700A48007894
:102CA000C0F38100C0B20328F8D164B2024830F802
:102CB0002400C0B210BD0000700BFF1FC80BFF1F27
:102CC00001400640004006400640064004400640E1
:102CD000054006402DE9F84F04000D0016001F00C6
:102CE00064B2002C0DD064B2012C02D064B2022C6C
:102CF00002D16DB2022D04DB2E21DFF8640300F057
:102D0000CEF9DFF8600300684FF47A714843401051
:102D1000B04204D22F21DFF8480300F0C0F964B2BA
:102D2000002C03D0022C66D049D380E0DFF83803B2
:102D3000006850F08070DFF8301308606DB2002D2D
:102D40000BD0022D15D00ED3042D1ED017D3062D77
:102D500027D020D3072D2AD02FE04FF480614120C7
:102D600000F01CFA2AE04FF44071042000F016FA3B
:102D700024E04FF44071052000F010FA1EE04FF4FB
:102D80004071062000F00AFA18E04FF44071072065
:102D900000F004FA12E04FF48061652000F0FEF9C3
:102DA0000CE04FF48061662000F0F8F906E04FF483
:102DB0008061672000F0F2F900E0D7E037E0DFF84B
:102DC000A802006850F00070DFF89C1208606DB235
:102DD000002D02D0012D06D00BE04FF440710C20E5
:102DE00000F0DCF906E04FF440710D2000F0D6F958
:102DF00000E0BBE01BE0DFF87402006850F0807078
:102E0000DFF8681208606DB2002D02D0012D06D0E7
:102E10000BE04FF440710A2000F0C0F906E04FF4D7
:102E200040710B2000F0BAF900E09FE0FFE7DFF807
:102E3000340200684FF47A714843401080465FEADC
:102E40001840B0FBF6F08146002082461FFA89F94F
:102E500059FA0AF0012802DB1AF1010AF6E75FFAD3
:102E60008AFABAF1080F05DB4FF48671DFF8F0013A
:102E700000F015F938FA0AF0B0FBF6F0814664B2BA
:102E8000002C03D0022C19D00CD322E01FFA89F9B0
:102E900019F1010000FB07F042F21071B0FBF1F0F4
:102EA000834616E01FFA89F919F1010000FB07F0CB
:102EB00042F21071B0FBF1F083460AE01FFA89F983
:102EC00019F1010000FB07F06421B0FBF1F083462B
:102ED000FFE76DB264B2DFF8980150F8240010EB00
:102EE000C5006DB264B2DFF8881151F8241011EBFF
:102EF000C501C96831F00401C1606DB264B2DFF888
:102F0000700150F8240010EBC5002821C1605FFA61
:102F10008AFA1AF0070050F0280064B2DFF8501166
:102F200051F8241008601FFA89F964B2DFF84001F3
:102F300050F82400C0F80890002064B2DFF8301187
:102F400051F82410C8646DB264B2DFF8240150F85F
:102F5000240010EBC5001FFA8BFBC0F810B0002056
:102F600064B2DFF80C1151F824104860BDE8F18F0D
:102F70002DE9F04104000D0016005FF0000864B276
:102F8000002C0ED064B2012C02D064B2022C02D10B
:102F90006DB2022D05DB40F24711DFF8C40000F0EE
:102FA0007EF864B2002C03D0022C17D00BD31EE0A5
:102FB00042F21170864205D34FF4A671DFF8A000EB
:102FC00000F06DF813E042F21170864205D34FF421
:102FD000A871DFF88C0000F062F808E0652E05D3D8
:102FE0004FF4AA71DFF8780000F059F8FFE764B2F7
:102FF000DFF87C0050F8240080688046B8F1000FAC
:10300000F5D064B2002C03D0022C15D00AD31CE0FA
:1030100018F1010000FB06F042F21071B0FBF1F074
:10302000070012E018F1010000FB06F042F21071F7
:10303000B0FBF1F0070008E018F1010000FB06F01A
:103040006421B0FBF1F00700FFE76DB264B2DFF876
:10305000200050F8240010EBC5000761BDE8F081A6
:10306000D0440000C03AFF1F3C8004403080044040
:10307000500BFF1FDFF800F0610CFF1FDFF800F0BE
:103080007D0CFF1FBFF34F8F3C48006810F4E060D9
:103090003B49084339490860BFF34F8FFEE738B515
:1030A00004000D002A002100364800F0EDF8FEE78C
:1030B00038B504000D00210049B2042000F0FFF9EA
:1030C000200032BD10B50024042000F011FA0420C5
:1030D00000F044FA002841D1002000F057FA042003
:1030E00000F03CFA012801D101200400002000F08A
:1030F0006AFA254800F0C8F84FF4FA7000F09EFA1A
:10310000E4B2012CEBD1042000F028FA0028E6D12B
:10311000042000F023FA002806D1002000F053FA22
:10312000642000F08BFAF3E7042000F017FA01287E
:1031300006D1002000F047FA322000F07FFAF3E7D2
:10314000124800F0A1F8FFF795FF642000F076FA2E
:103150000020FFF793FFFFF795FFC0E710BD10B504
:103160000B480478E4B20F200A4900FB0412E4B2D1
:103170002100094800F088F810BD00000CED00E0C7
:103180000400FA05B845000088460000EC45000040
:1031900004ED00E01C04FF1F5445000010B4374A42
:1031A00012684FF40073C0B24409A3401A43334B72
:1031B0001A60C0B210F01F02C0B24311304C54F874
:1031C000233043F8221010BC704710B42B4A126809
:1031D0004FF40073C0B24409A3401A43274B1A604E
:1031E00031F4E061C0B210F01F02C0B24311244CB0
:1031F00054F8233053F8222012F4E0621143C0B295
:1032000010F01F02C0B243111D4C54F8233043F894
:10321000221010BC704730B4184A12684FF4007383
:10322000C0B24409A3401A43144B1A60C0B210F054
:103230001F02C0B24311124C54F82330C9B20C041F
:1032400014F47024C9B2CD09EDB22C4354F4817446
:1032500043F82240C0B242110A4B53F82220C0B2B8
:103260004311084C54F823305B69012410F01F050A
:10327000AC40A343536130BC704700003880044029
:10328000CC0BFF1F5C0BFF1F0EB400B582B003A96F
:103290000091024600AB0121034878440A30FDF753
:1032A000BBF806BC5DF810FBBD1300002DE9F84328
:1032B00004000D0064B2002C08D0022C2CD018D3CE
:1032C000042C4FD03BD3052C5FD071E0DFF808020F
:1032D000006850F48060DFF8001208604FF440711D
:1032E0000F20FFF75BFF4FF440710E20FFF756FFF2
:1032F0005EE0DFF8E401006850F40060DFF8D81108
:1033000008604FF440714320FFF748FF4FF44071CD
:103310004420FFF743FF4BE0DFF8BC01006850F4A6
:103320008050DFF8B41108604FF440716320FFF75C
:1033300035FF4FF440716220FFF730FF38E0DFF8CF
:103340009801006850F40050DFF88C1108604FF4C9
:1033500040718520FFF722FF4FF440718420FFF772
:103360001DFF25E0DFF87401006850F48060DFF88D
:103370006C1108604FF440719920FFF70FFF4FF474
:1033800040719820FFF70AFF12E0DFF85001006853
:1033900050F40060DFF8441108604FF44071892058
:1033A000FFF7FCFE4FF440718820FFF7F7FEFFE7C0
:1033B00064B2DFF82C0150F82400C07810F0F3005C
:1033C00064B2DFF81C1151F82410C87064B244488C
:1033D00050F82400807864B2414951F82410887074
:1033E00064B2002C02D064B2012C06D13D480068C2
:1033F0004FF47A714843814605E03B4800684FF43A
:103400007A71484381462801B9FBF0F00600B6B254
:10341000B6F5005F02DB41F6FF700600B9FBF5F080
:10342000B6B2B0EB06100700BFB2202F04DB40F2AB
:1034300003112E48FFF733FE64B2294850F82400E8
:10344000007810F0E0008046B6B2300A10F01F009D
:1034500050EA080064B2224951F82410087064B29E
:103460001F4850F82400467064B21D4850F82400EC
:10347000807A10F0E000804617F01F0050EA080044
:1034800064B2174951F82410887264B2144850F895
:103490002400007C50F0880064B2114951F82410D7
:1034A000087464B20E4850F82400C07850F00C0044
:1034B00064B20B4951F82410C870BDE8F18340B2E2
:1034C000074A52F8202012791206F8D540B2044A71
:1034D00052F82020D1717047348004402880044085
:1034E000E00BFF1FB83AFF1FC03AFF1F4444000023
:1034F00010B5040064B2082C0DDA0022002164B279
:103500002148205C00F0A6F8032164B21E48205C2C
:10351000FFF75BFE14E0082004002000441E40B2C8
:1035200000280DD00022002164B21748205C00F072
:1035300091F8032164B21448205CFFF746FEECE7E3
:1035400010BD10B5040064B20F48205C00F0F5F81F
:10355000002801D1002000E0012010BD10B50400BA
:10356000200040B2FFF7EDFF00280AD10A2000F04A
:1035700065F8200040B2FFF7E4FF002801D10020E9
:1035800000E0012010BD00001004FF1F10B5040072
:1035900064B2042C07DA0122012164B20E48205CD7
:1035A00000F058F80EE0042004002000441E40B251
:1035B000002807D00122012164B20748205C00F0F6
:1035C00049F8F2E710BD10B5040064B20248205C6F
:1035D00000F097F810BD00001804FF1F30B4134C22
:1035E000246854F08074114D2C60114C246854F000
:1035F00001040F4D2C600F4C246821000E4C2468F0
:103600004FF47A7594FBF5F404FB00F423005C1886
:1036100022008A4203D2074C2468A242FBD3054C05
:1036200024689442FBD330BC70470000FCED00E0FE
:10363000001000E0041000E0B83AFF1F10B50400CD
:103640002000441E002804D04FF47A70FFF7C6FF14
:10365000F6E710BD70B504000D0016004FF4807140
:103660002000C0B2FFF79AFD6DB2002D11D1E4B277
:103670006011404951F82000E4B261113D4A52F80E
:1036800021104969012214F01F039A4091434161BE
:1036900036E0E4B26011374951F82000E4B261111C
:1036A000344A52F821104969012214F01F039A404C
:1036B00011434161F6B2002E11D1E4B260112D49DF
:1036C00051F820000068012114F01F029140884346
:1036D000E4B26111274A52F82110086010E0E4B208
:1036E0006011244951F820000068012114F01F02E4
:1036F00091400843E4B261111E4A52F8211008605B
:1037000070BD10B50400E4B260111A4951F82000F0
:10371000406914F01F01C840C00703D47B2116483C
:10372000FFF7BDFCE4B26011124951F820000121FD
:1037300014F01F029140C16010BD10B50400E4B246
:1037400060110C4951F82000406914F01F01C84075
:10375000C00703D58C210848FFF7A1FCE4B2601133
:10376000044951F82000006914F01F01C84010F00E
:10377000010010BD5C0BFF1FB4430000012110F0DD
:103780001F02914040B24209D04B43F822107047CB
:10379000012110F01F02914040B24209CC4B43F886
:1037A0002210704780B5002201215120FFF752FFFF
:1037B000002201215020FFF74DFF0022012153205C
:1037C000FFF748FF012201215220FFF743FFFEF7D8
:1037D00046FF01BD2DE9FE4372B6FFF7E3FF5FF43C
:1037E000E1310420FFF762FD89214320FFF713FD3B
:1037F00009212720FFF70FFDB6494020FFF7CEFC37
:103800000FF20D21682000F090F90FF27921692064
:1038100000F08BF9012002904FF48270019000209B
:1038200000904023AC4AAD49002000F095F95920A2
:10383000FFF7A4FF62B6AA4890F900000128FAD168
:103840000620A74908705FF0FF310420FFF737FE1C
:103850000024282C20DA0025B5F5827F1ADA4FF4EF
:1038600082709D4900FB0410285CFF2806D1FE20D1
:103870004FF48271984A01FB042168544FF482701E
:10388000954900FB0410295649B20420FFF717FEA2
:103890006D1CE1E7641CDCE70024282C2BDA4FF4D4
:1038A0008275012D25DB042095FBF0F101FB105101
:1038B00000291CD14FF48270874900FB0410285C5A
:1038C00064280ADA0122D4F14001C9B2042095FB30
:1038D000F0F0C0B2FEF778FF09E00022D4F1400119
:1038E000C9B2042095FBF0F0C0B2FEF76DFF6D1E6B
:1038F000D7E7641CD1E7FEF743FF19275FF0000804
:10390000B8F18C0F1BDA4FF48270734900FB07107B
:1039100018EB000040784FF482716F4A01FB0721D9
:1039200018F80110401A292806DB45462A0092B2F1
:1039300003214620FEF7B2FF18F10108E0E74FF43B
:103940008278B8F18D0F1CDB4FF48270624900FB66
:10395000071018EB000010F8010C4FF482715E4A5A
:1039600001FB072118F80110401A292806DB4446FC
:10397000220092B204214620FEF790FFB8F1010820
:10398000DFE76019022190FBF1F00600320092B2ED
:1039900007214620FEF782FF7820804640F2073359
:1039A000322200210020FFF795F9B04511DAB8EB7B
:1039B0000600400000F20730814640F2BE208145FB
:1039C00002DA40F2C12081464A4600210020FFF77A
:1039D000CFFA464511DAB8EB0600400000F2073096
:1039E000814640F25330814502DB40F24D30814642
:1039F0004A4600210020FFF7BBFA5FF0FF3039494B
:103A000008605920FFF7BAFE04203549087012E714
:103A100010B50720040034480068E040C0072FD5E7
:103A20000120A0403049086030480088401C2F49E0
:103A300008802F480078401C2D4908702C480078D9
:103A4000F12817DA2A4800782A4909782A4A895C35
:103A5000884215D140F23A2000F0AEF927480068BC
:103A600050F001002549086022480078401C214997
:103A7000087005E05820FFF78BFE012018490870F8
:103A800010BD000010B50320040016480068E04097
:103A9000C0071AD50120A0401249086018480088C4
:103AA000401C1749088003200D4908700A48154931
:103AB000086000200E49087000200E490870582048
:103AC000FFF75CFE5920FFF763FE10BD00E100E048
:103AD00080E100E0030102001812FF1F10F10F4007
:103AE000240BFF1FA0B00440A0A00440163BFF1F02
:103AF000183BFF1F193BFF1F280BFF1F0C800040C6
:103B0000143BFF1F1090004010B504004FF40070EC
:103B100094FBF0F101FB1041002903D01E210B485A
:103B2000FFF7BDFA0A48046010BD38B504000D0067
:103B3000074800680749884203D030210348FFF74F
:103B4000AEFA64B2034840F8245031BD1445000079
:103B500008ED00E00000FF1F2DE9F44F82B00400E3
:103B60000D001E009DF93070DDF83480DDF83890CE
:103B70007FB2002F02D15FF0010A0DE07FB2012F6A
:103B800002D15FF0020A07E07FB2022F02D15FF09C
:103B9000040A01E05FF0100A7FB2002F05D17948D6
:103BA000854202D37848A8421DD27FB2012F09D1A5
:103BB0007448854206D37548A84203D315F0030024
:103BC000032810D17FB2022F09D16E48854206D357
:103BD0006F48A84203D315F00300002803D0412109
:103BE0006C48FFF75CFAB8F5004F03D343216948EE
:103BF000FFF755FA6848006850F00200664908600F
:103C00006648006850F002006449086064B26001D0
:103C100063494550029864B2610101F1804111F598
:103C200010410861002064B2610101F1804111F589
:103C3000104188805FFA8AFA64B2600100F1804026
:103C400010F51040A0F814A07FB2380210F4E06024
:103C50007FB217F00701084364B2610101F18041AE
:103C600011F51041C88040464004400C64B2610127
:103C700001F1804111F51041C88240464004400CDA
:103C800064B2610101F1804111F51041C8834548DA
:103C9000006830F08000434908605FFA8AFA64B235
:103CA000600100F1804010F51040C0F808A000202D
:103CB00064B2610101F1804111F51041C8605FEA11
:103CC000C97002D4D8F1000000E0002064B26101A4
:103CD00001F1804111F5104188614CF20A0064B293
:103CE000610101F1804111F510418883F6B270093C
:103CF000313050F0800064B22B4960542B493000C1
:103D0000C0B2FFF74BFAA80910F00700C0B240019B
:103D100083462800103810F03F00C0B2C0008DF874
:103D200001009DF8010010EB0B0B5FFA8AFA1BEB08
:103D3000CA00401E8DF800009DF800005FFA8BFB62
:103D400058450ED3002200215846C0B2FFF782FC2E
:103D50004FF481715846C0B2FFF720FA1BF1010BF6
:103D6000EAE7134800680121A14088431049086030
:103D7000104800680121A14008430E490860BDE8D1
:103D8000F78F00BF10F00F4013F10F4012F10F40FA
:103D900010F10F408C440000408004403C800440FF
:103DA000009000400080004000100240000101002F
:103DB0000C8000402480004010B50400002C15D079
:103DC000B4F1807F03D329210948FFF768F9002067
:103DD0000849086008480460002008490860052078
:103DE0000449086003480068C003FBD510BD00000B
:103DF000FC43000010E000E014E000E018E000E008
:103E00000000000000000000002F0000000007007C
:103E1000070000147F147F1400242A7F2A120062F6
:103E200064081323003649552250000005030000A2
:103E300000001C224100000041221C000014083E2A
:103E400008140008083E0808000000A060000008F0
:103E50000808080800006060000000201008040244
:103E6000003E5149453E0000427F40000042615102
:103E70004946002141454B31001814127F1000279C
:103E800045454539003C4A4949300001710905035F
:103E900000364949493600064949291E0000363690
:103EA00000000000563600000008142241000014F3
:103EB00014141414000041221408000201510906D0
:103EC00000324959513E007C1211127C007F494951
:103ED0004936003E41414122007F4141221C007F82
:103EE00049494941007F09090901003E4149497A90
:103EF000007F0808087F0000417F4100002040410A
:103F00003F01007F08142241007F40404040007F75
:103F1000020C027F007F0408107F003E4141413EB9
:103F2000007F09090906003E4151215E007F091901
:103F300029460046494949310001017F0101003FFE
:103F40004040403F001F2040201F003F4038403F7E
:103F500000631408146300070870080700615149E2
:103F6000454300007F41410000552A552A55000075
:103F700041417F00000402010204004040404040F3
:103F8000000001020400002054545478007F48448B
:103F9000443800384444442000384444487F0038C2
:103FA0005454541800087E0901020018A4A4A47CEB
:103FB000007F080404780000447D400000408084B5
:103FC0007D00007F102844000000417F4000007CFD
:103FD00004180478007C0804047800384444443809
:103FE00000FC242424180018242418FC007C080455
:103FF000040800485454542000043F444020003C2E
:104000004040207C001C2040201C003C4030403CB4
:10401000004428102844001CA0A0A07C0044645444
:104020004C44141414141414DFF800F09F300000F2
:10403000F02052490870514800780006FBD54F48DF
:1040400000787121084201D0002000E00120704773
:104050004B48006850F40020494908604748007800
:104060000006FBD5F02045490870704710B582B0B6
:104070000400A4B24FF4805000FB04F0009009202B
:10408000404908709DF802003F4908709DF8010002
:104090003E4908709DF800003D490870FFF7C8FFD1
:1040A000002801D100200EE0A4B2002C0AD15FF05C
:1040B000FF327FF001034FF48161200080B200F0F5
:1040C00003F800E0012016BDF0B583B006000F0034
:1040D00014001D00B6B24FF48050BFB200FB067052
:1040E0000190BFB2082097FBF0F101FB107100298D
:1040F00003D0F5212748FFF797FFBFB2B7F5805FE0
:1041000003DDF7212348FFF78FFF9DF806001E49C6
:1041100008709DF805001D4908709DF804001C49B1
:10412000087000949DF803001B4908709DF8020078
:104130001A4908709DF80100194908709DF800009F
:104140001849087007200F49087000959DF8030072
:10415000154908709DF80200144908709DF8010087
:10416000134908709DF8000012490870FFF760FFBE
:10417000002801D1002000E00120FEBD0000024027
:1041800004F0014007000240060002400500024022
:10419000040002406C4300000B0002400A00024091
:1041A00009000240080002400F0002400E000240D9
:1041B0000D0002400C000240F0B4114E366834008D
:1041C0000F4E366856F47F060D4F3E600E0616F011
:1041D000706656EA0076170517F470073E431F0411
:1041E00017F470273E43074F3E6000263500EDB2BE
:1041F0009D4201D26D1CFAE7014E3460F0BC70475D
:1042000000F001404480044080B500F08FF800F0D9
:1042100025F800F005F8FEF755FFFFF7DBFAFEE79B
:1042200080B50420FEF7EEFC324908603148006892
:104230004FF47A714843304908602F4800682F498D
:104240000968C1F30361491CB0FBF1F02C49086017
:104250005FF4E1310420FFF729F801BD2DE9F843AF
:104260002848294988420DD000208046B8F5826F41
:1042700008D2254850F82800224941F8280018F1B2
:104280000108F3E71F48FFF73FFC204807002048DC
:10429000060020480400A01B80464046B0F10108FB
:1042A000002804D030783870761C7F1CF5E71A4857
:1042B00081461A480500B5EB090080464046B0F13A
:1042C0000108002805D0002089F8000019F1010933
:1042D000F4E713481349144A531A98464346B3F176
:1042E0000108002B04D00B780370491C401CF5E733
:1042F000BDE8F183BC3AFF1FB83AFF1F4480044079
:10430000C03AFF1F0000FF1F000000001004FF1F45
:10431000B81C0000E0240000180EFF1F1A3BFF1F0E
:10432000380CFF1F284000000842000080B500F054
:1043300009F80C4800884FF6FE71084009490880CA
:1043400001BD0000EFF3118072B64CF22051064A15
:1043500011804DF62811044A1180C0B2002800D106
:1043600062B67047002005400E200540433A5C5578
:10437000736572735C6A616D6F726E5C4465736BBA
:10438000746F705C4F56353131362626534F4E5977
:1043900020434344A3A84B3630A3A95C436869700B
:1043A0005C7372635C4D4B36305F666C6173682E74
:1043B00063000000433A5C55736572735C6A616D1B
:1043C0006F726E5C4465736B746F705C4F56353101
:1043D00031362626534F4E5920434344A3A84B362B
:1043E00030A3A95C436869705C7372635C4D4B36A3
:1043F000305F6770696F2E6300000000433A5C55C0
:10440000736572735C6A616D6F726E5C4465736B29
:10441000746F705C4F56353131362626534F4E59E6
:1044200020434344A3A84B3630A3A95C436869707A
:104430005C7372635C4D4B36305F537973546963C0
:104440006B2E6300433A5C55736572735C6A616DF1
:104450006F726E5C4465736B746F705C4F56353170
:1044600031362626534F4E5920434344A3A84B369A
:1044700030A3A95C436869705C7372635C4D4B3612
:10448000305F756172742E6300000000433A5C5522
:10449000736572735C6A616D6F726E5C4465736B99
:1044A000746F705C4F56353131362626534F4E5956
:1044B00020434344A3A84B3630A3A95C43686970EA
:1044C0005C7372635C4D4B36305F646D612E6300CC
:1044D000433A5C55736572735C6A616D6F726E5CB2
:1044E0004465736B746F705C4F56353131362626D8
:1044F000534F4E5920434344A3A84B3630A3A95CE5
:10450000436869705C7372635C4D4B36305F6674F0
:104510006D2E6300433A5C55736572735C6A616D1E
:104520006F726E5C4465736B746F705C4F5635319F
:1045300031362626534F4E5920434344A3A84B36C9
:1045400030A3A95C436869705C7372635C6D6973C6
:10455000632E63000A2A2A2A2A64656661756C74D0
:104560005F69737220656E7465726564206F6E207A
:10457000766563746F722025642A2A2A2A2A0D0A16
:104580000A257320496E746572727570740000009C
:1045900010B5074979441831064C7C44163404E0C0
:1045A0000A68081D511888470146A142F8D110BD7C
:1045B0002C00000038000000417373657274696F4D
:1045C0006E206661696C656420696E2025732061C8
:1045D00074206C696E652025640A0000ABCBFFFF78
:1045E000042D0000180EFF1F000000000ABDF8D0C7
:1045F000D0BDE2CBF8B2D9D7F7A3ACC7EBD6D8D0B1
:10460000C2CBA2C8EBB9CCBCFE0000004EF688516C
:10461000CEF20001086840F4700008604FF00070AE
:10462000E1EE100A7047000000F00BF8002801D0FE
:10463000FFF7AEFF0020C046C046FFF7CBF800F002
:1046400002F80120704700F001B800000746384624
:1046500000F002F8FBE7000001491820ABBEFBE7C1
:104660002600020038B504460D46284600F006F83C
:10467000A84218BF0024204632BD00000149FEF7C1
:1046800017BD00BFF80BFF1F0ABDF8C8EBCBC0D1A8
:10469000ADBBB7B5C8B4FDA3A1000000C046C0467D
:1046A000FFF7B4FFFFF7C0FF0000000000000000AC
:1046B00000000000000000000000000000000000FA
:1046C00000000000FFFFFFFFFFFFFFFF00000000F2
:1046D00000000000000000000000000000000000DA
:1046E00000000000000000000000000000000000CA
:1046F000FFFFFFFFFFFF00000000000000000000C0
:1047000000000000000000000000000000000000A9
:104710000000000000000000000000000000000099
:104720000000000000000000000000000000000089
:040000050000469D14
:00000001FF
